{
  "_format": "hh-sol-artifact-1",
  "contractName": "Crowdfunding",
  "sourceName": "contracts/Crowdfunding.sol",
  "abi": [
    {
      "inputs": [
        {
          "internalType": "uint256",
          "name": "",
          "type": "uint256"
        }
      ],
      "name": "Campaigns",
      "outputs": [
        {
          "internalType": "address",
          "name": "owner",
          "type": "address"
        },
        {
          "internalType": "string",
          "name": "title",
          "type": "string"
        },
        {
          "internalType": "string",
          "name": "description",
          "type": "string"
        },
        {
          "internalType": "uint256",
          "name": "target",
          "type": "uint256"
        },
        {
          "internalType": "uint256",
          "name": "deadline",
          "type": "uint256"
        },
        {
          "internalType": "uint256",
          "name": "amountCollected",
          "type": "uint256"
        }
      ],
      "stateMutability": "view",
      "type": "function"
    },
    {
      "inputs": [
        {
          "internalType": "address",
          "name": "_owner",
          "type": "address"
        },
        {
          "internalType": "string",
          "name": "_title",
          "type": "string"
        },
        {
          "internalType": "string",
          "name": "_description",
          "type": "string"
        },
        {
          "internalType": "uint256",
          "name": "_target",
          "type": "uint256"
        },
        {
          "internalType": "uint256",
          "name": "_deadline",
          "type": "uint256"
        }
      ],
      "name": "createCampaign",
      "outputs": [
        {
          "internalType": "uint256",
          "name": "",
          "type": "uint256"
        }
      ],
      "stateMutability": "nonpayable",
      "type": "function"
    },
    {
      "inputs": [
        {
          "internalType": "uint256",
          "name": "_id",
          "type": "uint256"
        }
      ],
      "name": "donateToCampaign",
      "outputs": [],
      "stateMutability": "payable",
      "type": "function"
    },
    {
      "inputs": [
        {
          "internalType": "uint256",
          "name": "_id",
          "type": "uint256"
        }
      ],
      "name": "getCampaign",
      "outputs": [
        {
          "internalType": "address",
          "name": "owner",
          "type": "address"
        },
        {
          "internalType": "string",
          "name": "title",
          "type": "string"
        },
        {
          "internalType": "string",
          "name": "description",
          "type": "string"
        },
        {
          "internalType": "uint256",
          "name": "target",
          "type": "uint256"
        },
        {
          "internalType": "uint256",
          "name": "deadline",
          "type": "uint256"
        },
        {
          "internalType": "uint256",
          "name": "amountCollected",
          "type": "uint256"
        }
      ],
      "stateMutability": "view",
      "type": "function"
    },
    {
      "inputs": [
        {
          "internalType": "uint256",
          "name": "_id",
          "type": "uint256"
        }
      ],
      "name": "getDonators",
      "outputs": [
        {
          "internalType": "address[]",
          "name": "",
          "type": "address[]"
        },
        {
          "internalType": "uint256[]",
          "name": "",
          "type": "uint256[]"
        }
      ],
      "stateMutability": "view",
      "type": "function"
    },
    {
      "inputs": [],
      "name": "getNumberOfCampaigns",
      "outputs": [
        {
          "internalType": "uint256",
          "name": "",
          "type": "uint256"
        }
      ],
      "stateMutability": "view",
      "type": "function"
    },
    {
      "inputs": [],
      "name": "numberOfCampaigns",
      "outputs": [
        {
          "internalType": "uint256",
          "name": "",
          "type": "uint256"
        }
      ],
      "stateMutability": "view",
      "type": "function"
    }
  ],
  "bytecode": "0x6080604052600060015534801561001557600080fd5b506112e2806100256000396000f3fe6080604052600436106100705760003560e01c80634013be101161004e5780634013be101461011b57806342a4fda81461015d5780635598f8cc14610179578063e4aafc2c146101bb57610070565b8063075843c31461007557806307ca140d146100b25780630fa91fa9146100dd575b600080fd5b34801561008157600080fd5b5061009c60048036038101906100979190610a5d565b6101e6565b6040516100a99190610b1f565b60405180910390f35b3480156100be57600080fd5b506100c76102f7565b6040516100d49190610b1f565b60405180910390f35b3480156100e957600080fd5b5061010460048036038101906100ff9190610b3a565b6102fd565b604051610112929190610ce3565b60405180910390f35b34801561012757600080fd5b50610142600480360381019061013d9190610b3a565b61040d565b60405161015496959493929190610da8565b60405180910390f35b61017760048036038101906101729190610b3a565b610579565b005b34801561018557600080fd5b506101a0600480360381019061019b9190610b3a565b6106dc565b6040516101b296959493929190610da8565b60405180910390f35b3480156101c757600080fd5b506101d0610865565b6040516101dd9190610b1f565b60405180910390f35b600042821161022a576040517f08c379a000000000000000000000000000000000000000000000000000000000815260040161022190610e89565b60405180910390fd5b600080600060015481526020019081526020016000209050868160000160006101000a81548173ffffffffffffffffffffffffffffffffffffffff021916908373ffffffffffffffffffffffffffffffffffffffff1602179055508581600101908161029691906110b5565b50848160020190816102a891906110b5565b5083816003018190555082816004018190555060008160050181905550600160008154809291906102d8906111b6565b9190505550600180546102eb91906111fe565b91505095945050505050565b60015481565b606080600080848152602001908152602001600020600601600080858152602001908152602001600020600701818054806020026020016040519081016040528092919081815260200182805480156103ab57602002820191906000526020600020905b8160009054906101000a900473ffffffffffffffffffffffffffffffffffffffff1673ffffffffffffffffffffffffffffffffffffffff1681526020019060010190808311610361575b50505050509150808054806020026020016040519081016040528092919081815260200182805480156103fd57602002820191906000526020600020905b8154815260200190600101908083116103e9575b5050505050905091509150915091565b60006020528060005260406000206000915090508060000160009054906101000a900473ffffffffffffffffffffffffffffffffffffffff169080600101805461045690610ed8565b80601f016020809104026020016040519081016040528092919081815260200182805461048290610ed8565b80156104cf5780601f106104a4576101008083540402835291602001916104cf565b820191906000526020600020905b8154815290600101906020018083116104b257829003601f168201915b5050505050908060020180546104e490610ed8565b80601f016020809104026020016040519081016040528092919081815260200182805461051090610ed8565b801561055d5780601f106105325761010080835404028352916020019161055d565b820191906000526020600020905b81548152906001019060200180831161054057829003601f168201915b5050505050908060030154908060040154908060050154905086565b60003490506000806000848152602001908152602001600020905080600601339080600181540180825580915050600190039060005260206000200160009091909190916101000a81548173ffffffffffffffffffffffffffffffffffffffff021916908373ffffffffffffffffffffffffffffffffffffffff1602179055508060070182908060018154018082558091505060019003906000526020600020016000909190919091505560008160000160009054906101000a900473ffffffffffffffffffffffffffffffffffffffff1673ffffffffffffffffffffffffffffffffffffffff168360405161066e90611263565b60006040518083038185875af1925050503d80600081146106ab576040519150601f19603f3d011682016040523d82523d6000602084013e6106b0565b606091505b5050905080156106d657828260050160008282546106ce9190611278565b925050819055505b50505050565b600060608060008060008060008089815260200190815260200160002090508060000160009054906101000a900473ffffffffffffffffffffffffffffffffffffffff16816001018260020183600301548460040154856005015484805461074390610ed8565b80601f016020809104026020016040519081016040528092919081815260200182805461076f90610ed8565b80156107bc5780601f10610791576101008083540402835291602001916107bc565b820191906000526020600020905b81548152906001019060200180831161079f57829003601f168201915b505050505094508380546107cf90610ed8565b80601f01602080910402602001604051908101604052809291908181526020018280546107fb90610ed8565b80156108485780601f1061081d57610100808354040283529160200191610848565b820191906000526020600020905b81548152906001019060200180831161082b57829003601f168201915b505050505093509650965096509650965096505091939550919395565b6000600154905090565b6000604051905090565b600080fd5b600080fd5b600073ffffffffffffffffffffffffffffffffffffffff82169050919050565b60006108ae82610883565b9050919050565b6108be816108a3565b81146108c957600080fd5b50565b6000813590506108db816108b5565b92915050565b600080fd5b600080fd5b6000601f19601f8301169050919050565b7f4e487b7100000000000000000000000000000000000000000000000000000000600052604160045260246000fd5b610934826108eb565b810181811067ffffffffffffffff82111715610953576109526108fc565b5b80604052505050565b600061096661086f565b9050610972828261092b565b919050565b600067ffffffffffffffff821115610992576109916108fc565b5b61099b826108eb565b9050602081019050919050565b82818337600083830152505050565b60006109ca6109c584610977565b61095c565b9050828152602081018484840111156109e6576109e56108e6565b5b6109f18482856109a8565b509392505050565b600082601f830112610a0e57610a0d6108e1565b5b8135610a1e8482602086016109b7565b91505092915050565b6000819050919050565b610a3a81610a27565b8114610a4557600080fd5b50565b600081359050610a5781610a31565b92915050565b600080600080600060a08688031215610a7957610a78610879565b5b6000610a87888289016108cc565b955050602086013567ffffffffffffffff811115610aa857610aa761087e565b5b610ab4888289016109f9565b945050604086013567ffffffffffffffff811115610ad557610ad461087e565b5b610ae1888289016109f9565b9350506060610af288828901610a48565b9250506080610b0388828901610a48565b9150509295509295909350565b610b1981610a27565b82525050565b6000602082019050610b346000830184610b10565b92915050565b600060208284031215610b5057610b4f610879565b5b6000610b5e84828501610a48565b91505092915050565b600081519050919050565b600082825260208201905092915050565b6000819050602082019050919050565b610b9c816108a3565b82525050565b6000610bae8383610b93565b60208301905092915050565b6000602082019050919050565b6000610bd282610b67565b610bdc8185610b72565b9350610be783610b83565b8060005b83811015610c18578151610bff8882610ba2565b9750610c0a83610bba565b925050600181019050610beb565b5085935050505092915050565b600081519050919050565b600082825260208201905092915050565b6000819050602082019050919050565b610c5a81610a27565b82525050565b6000610c6c8383610c51565b60208301905092915050565b6000602082019050919050565b6000610c9082610c25565b610c9a8185610c30565b9350610ca583610c41565b8060005b83811015610cd6578151610cbd8882610c60565b9750610cc883610c78565b925050600181019050610ca9565b5085935050505092915050565b60006040820190508181036000830152610cfd8185610bc7565b90508181036020830152610d118184610c85565b90509392505050565b610d23816108a3565b82525050565b600081519050919050565b600082825260208201905092915050565b60005b83811015610d63578082015181840152602081019050610d48565b60008484015250505050565b6000610d7a82610d29565b610d848185610d34565b9350610d94818560208601610d45565b610d9d816108eb565b840191505092915050565b600060c082019050610dbd6000830189610d1a565b8181036020830152610dcf8188610d6f565b90508181036040830152610de38187610d6f565b9050610df26060830186610b10565b610dff6080830185610b10565b610e0c60a0830184610b10565b979650505050505050565b7f54686520646561646c696e652073686f756c642062652061206461746520696e60008201527f2074686520667574757265000000000000000000000000000000000000000000602082015250565b6000610e73602b83610d34565b9150610e7e82610e17565b604082019050919050565b60006020820190508181036000830152610ea281610e66565b9050919050565b7f4e487b7100000000000000000000000000000000000000000000000000000000600052602260045260246000fd5b60006002820490506001821680610ef057607f821691505b602082108103610f0357610f02610ea9565b5b50919050565b60008190508160005260206000209050919050565b60006020601f8301049050919050565b600082821b905092915050565b600060088302610f6b7fffffffffffffffffffffffffffffffffffffffffffffffffffffffffffffffff82610f2e565b610f758683610f2e565b95508019841693508086168417925050509392505050565b6000819050919050565b6000610fb2610fad610fa884610a27565b610f8d565b610a27565b9050919050565b6000819050919050565b610fcc83610f97565b610fe0610fd882610fb9565b848454610f3b565b825550505050565b600090565b610ff5610fe8565b611000818484610fc3565b505050565b5b8181101561102457611019600082610fed565b600181019050611006565b5050565b601f8211156110695761103a81610f09565b61104384610f1e565b81016020851015611052578190505b61106661105e85610f1e565b830182611005565b50505b505050565b600082821c905092915050565b600061108c6000198460080261106e565b1980831691505092915050565b60006110a5838361107b565b9150826002028217905092915050565b6110be82610d29565b67ffffffffffffffff8111156110d7576110d66108fc565b5b6110e18254610ed8565b6110ec828285611028565b600060209050601f83116001811461111f576000841561110d578287015190505b6111178582611099565b86555061117f565b601f19841661112d86610f09565b60005b8281101561115557848901518255600182019150602085019450602081019050611130565b86831015611172578489015161116e601f89168261107b565b8355505b6001600288020188555050505b505050505050565b7f4e487b7100000000000000000000000000000000000000000000000000000000600052601160045260246000fd5b60006111c182610a27565b91507fffffffffffffffffffffffffffffffffffffffffffffffffffffffffffffffff82036111f3576111f2611187565b5b600182019050919050565b600061120982610a27565b915061121483610a27565b925082820390508181111561122c5761122b611187565b5b92915050565b600081905092915050565b50565b600061124d600083611232565b91506112588261123d565b600082019050919050565b600061126e82611240565b9150819050919050565b600061128382610a27565b915061128e83610a27565b92508282019050808211156112a6576112a5611187565b5b9291505056fea2646970667358221220af7aea80aa25e4e495f27c9c7f7e3e4da6c31477e78c352cb051aaa8fbc2f08164736f6c63430008120033",
  "linkReferences": {},
  "deployedLinkReferences": {}
}